:020000041000EA
:1000000000B5324B212058609868022188439860DF
:10001000D860186158612E4B002199600221596106
:100020000121F02299502B49196001219960352056
:1000300000F044F80222904214D00621196600F024
:1000400034F8196E01211966002018661A6600F04E
:100050002CF8196E196E196E052000F02FF8012189
:100060000842F9D1002199601B49196000215960AB
:100070001A491B48016001219960EB211966A021F2
:10008000196600F012F800219960164914480160C1
:100090000121996001BC002800D000471248134993
:1000A000086003C880F30888084703B5996A0420EC
:1000B0000142FBD001200142F8D103BD02B5186610
:1000C0001866FFF7F2FF186E186E02BD00000240BE
:1000D000000000180000070000035F00212200005C
:1000E000F4000018222000A00001001008ED00E03C
:1000F00000000000000000000000000074B24E7A12
:1001000000200420F7010010C3010010C5010010F9
:10011000C1010010C1010010C1010010C101001097
:10012000C1010010C1010010C1010010C701001081
:10013000C1010010C1010010C9010010CB01001065
:10014000CD010010CD010010CD010010CD01001037
:10015000CD010010CD010010CD010010CD01001027
:10016000CD010010CD010010CD010010CD01001017
:10017000CD010010CD010010CD010010CD01001007
:10018000CD010010CD010010CD010010CD010010F7
:10019000CD010010CD010010CD010010CD010010E7
:1001A000CD010010CD010010CD010010CD010010D7
:1001B000CD010010CD010010CD010010CD010010C7
:1001C00000BE00BE00BE00BE00BE00BEEFF3058054
:1001D000103800BEF2EB8871E024051008250510E8
:1001E0003802001090A31AE71E481F49086006C88D
:1001F00081F3088810471D480068002801D019487D
:10020000F3E70DA40ECC002902D000F012F8F9E7B4
:100210001749184A002000E001C19142FCD116495B
:100220008847164988471649884700BEFDE701C937
:1002300001C29A42FBD3704708250510C000002078
:10024000E41B00202C4005100000042000000420C6
:100250002C400510001004200010042000000000B5
:10026000704700000000000008ED00E0000000D032
:10027000E41B0020003002205D3D0010D904001076
:100280001D3D0010F8B5C04606480749091A8B10F5
:10029000C90FC91810B5491003D0044B002B00D06A
:1002A000984710BDE41B0020E41B00200000000064
:1002B000054B10B5002B03D00449054800E000BFF2
:1002C000FFF7E2FF10BDC04600000000D429002067
:1002D000345B011070B58CB008F0C2FF0B900B9925
:1002E000284803F0C9FE0B9B9800C018C00007F017
:1002F00075FB061E42D00B9909AA0AF06DF80B9007
:1003000000230A9325E00A9B9900C918C9007118B7
:100310000A9B9A00D218D200B2180A9883001B18C0
:10032000DB00F3180A9884002418E40034190A98B2
:1003300085002D18ED0075195B69126989681248EE
:100340006D680195246A009403F096FE0A9B0133C0
:100350000A930A9A0B9B9A42D5D3300007F002FC0D
:1003600002AC200007F050FC079B059A0299074851
:10037000089C009403F080FE0CB070BD044803F0AC
:100380004CFEEDE7385B01104C5B01109C5B0110EB
:10039000785B011030B5FBB03C4803F03EFE802492
:1003A000E4003B4973AD01232200280000F0E4F88B
:1003B000384B7393FA239B00AB613749012322002A
:1003C0006CA800F0D9F8334B6C93FA237293802217
:1003D0003249F93BD20065A800F0CEF82D4B659369
:1003E00064236B930021280000F0DAF800216CA848
:1003F00000F0D6F8002165A800F0D2F8284803F0F4
:100400000CFE0CE0040000F03BF9AA0001ABD45054
:100410000135632D05DC84200AF0F8FAF2E70025A7
:10042000F7E7FFF757FFFA20800009F061FE1D484B
:1004300003F0F3FD0FE003685B689847A20001AB8F
:100440000021D1500134632C07DCA30001AA985885
:100450000028F0D1F2E70024F5E7FFF73BFF124850
:1004600009F046FECAE7842120000AF0D7FA65A801
:1004700000F04AF86CA800F047F873A800F044F8C0
:100480000AF0D0FAF3E7F5E7F7E7C046CC5B0110D6
:10049000E05B0110F88D0110E85B0110F05B0110CA
:1004A000F85B0110005C0110B80B000000B585B0CE
:1004B000FA220749074803AB019301230093002365
:1004C000520009F083FB09F0DBFB05B000BDC0461C
:1004D000085C01109503001010B503F099FDFA2097
:1004E000400101F0E7F9054803F097FD044905488C
:1004F00003F0C2FDFFF7DAFF002010BD145C01100D
:10050000185C0110245C011010B50400044B03605A
:1005100000F066F8200000F03DF8200010BDC04655
:10052000F88D011010B50400FFF7EEFF1C2120002C
:100530000AF074FA200010BD70B505000C4803F0F5
:100540006CFD0C4B1B78002B0BD0012421000020EC
:1005500003F0C2FEA86909F0CBFD63425C41E4B23E
:10056000F4E703F0EDFE034B01221A70EDE7C046FD
:100570003C5C0110F82F022010B5054C0460C160EE
:10058000028283740023836043600133436110BDA2
:100590000C8E0110014B03607047C0460C8E011099
:1005A00030B583B004000D004368002B02D00A4828
:1005B00003F062FDA560228AA37CE1680748251D3F
:1005C00001950093230009F001FB6169606809F05F
:1005D00095FC03B030BDC046545C0110F505001019
:1005E00010B503004068002803D000225A6009F0CB
:1005F0008DFB10BD70B50400154803F00EFD616859
:10060000144D280003F038FDA06803F006FDE068F3
:1006100003F003FD218A280003F02EFDA17C2800B1
:1006200003F02AFD6169280003F026FDE1680A480D
:1006300003F022FDA16823689B6820009847E168C9
:10064000064803F019FD2000FFF7CAFF70BDC04641
:100650008C5C0110A05C0110A45C0110B85C01105E
:10066000014B03607047C046208E011010B5040096
:10067000FFF7F6FF842120000AF0D0F9200010BD1A
:10068000014B03607047C046208E011010B58300F7
:10069000084A9A1814684022544080322240064C7E
:1006A000A44663441A60C000044B9C466044416009
:1006B00010BDC04604C0014004D0014000400140CC
:1006C00080000C4B9C46604400290ED00823002A71
:1006D0000DD004221343026853400C2213408022A1
:1006E000520194466044036070470023EFE7002204
:1006F000F0E7C04604C00140002906D08000064B48
:100700009C4660440223036070478000034B9C4674
:10071000604402230360F7E704E0014004F0014075
:1007200070B5D0231B061B68094C9D002C59204234
:1007300007D1074D9B0004435C510D2000F040FAA7
:1007400070BD044B044A0548DE2103F0EBFAC046B5
:10075000982C0020CC5C01104C8E0110F85C01102C
:1007600010B50400D0231B061A680B4B9200D35817
:1007700018420BD00D2000F02FFBD0231B061B6866
:1007800005499B005A58A2435A5010BD034B044AD6
:100790000448F22103F0C6FA982C0020485D0110AD
:1007A000288E0110F85C0110072303409B00C0084D
:1007B00099403C308000014BC150704700400140DF
:1007C000F8B507000D0016001C00FFF7EDFFFB0851
:1007D0009B00E4180720384080008540002E05D09B
:1007E00080239B019C4664442560F8BDC0239B0187
:1007F0009C4664442560F8E770B5002A0FD0D023EA
:100800001B061C680F4BA500EB58202810D40023B2
:10081000DB0704D40C4BA400E358002B0AD0D023F0
:100820001B061B68002B0BD0084BFFF7C9FF70BDE0
:10083000C340EDE7064B074A0748BE2103F072FAB2
:10084000064BF2E7982C0020842000203041014024
:10085000745D0110808E0110F85C011000410140B0
:1008600010B501238340D0221206936293610521C3
:10087000FFF70CFF10BD00000FB400B583B00848AF
:1008800003F0CBFB049B002B07D005A901911800B6
:1008900003F0D2FB034803F0C0FB012003F0E8F9AA
:1008A000CC5D0110C85B011010B50148FFF7E4FFF3
:1008B000DC5D0110EFF3108072B6034B1B68002B58
:1008C000FBD0BFF35F8F70472C0100D0BFF35F8F69
:1008D000024B00221A6080F3108870472C0100D070
:1008E000F8B506000C001500FFF7E4FFE308F71861
:1008F000F15C07222240012393400B4205D1DBB279
:100900000B433B70FFF7E2FFF8BD21002800FFF723
:10091000B3FFF0B583B00600019114001F00FFF78C
:10092000C9FF00E00134BC420CD8E308F518F35CC1
:100930000721214001228A401A42F3D1D2B21A4340
:100940002A7001E001246442FFF7C0FF002C02DBA3
:10095000200003B0F0BD019B002BF9D00898FFF7F1
:100960008BFF000070B505000C00FFF7A3FFE30844
:10097000EE18EA5C0721214001238B40134204D08A
:100980009A433270FFF7A2FF70BD034B034A04483D
:10099000332103F0C7F9C046EC5D0110988E0110B9
:1009A0000C5E0110054A1078431CDBB21370172B44
:1009B00002D9130010221A707047C0469415002007
:1009C00010B50100024A034B1800FFF789FF10BD64
:1009D0005C5E011094200020002307E0054A9A186D
:1009E0009200BFF35F8F0021116001331F2BF5D9F7
:1009F0007047C04640000034074B9B6810308000B1
:100A00001950BFF35F8FBFF35F8F044B0021196054
:100A100082F310887047C04600ED00E0240100D04A
:100A20000048704700E400E010B5FFF7F9FF00232D
:100A300002E0034A04C00133072BFAD910BDC046B7
:100A4000808080801F23181A7047000010B503882B
:100A5000DA0A1C2A05D15B055B1502335B00C0185E
:100A600010BD034B034A10210348FF3103F05AF92C
:100A70007C5E0110F48E0110945E011010B5091A0D
:100A80000B1F0A4A88180A4A904208D8C90706D498
:100A90005B105B055B0D0748184380B210BD064B29
:100AA000064A02210648FF3103F03CF9FC0700002A
:100AB000FE0F000000E0FFFFE45E0110E88E011071
:100AC000945E011010B5091A04394A08090B08D1BF
:100AD0004905490D064B0B430380064B13434380E6
:100AE00010BD054B054A0A210548FF3103F01AF9EC
:100AF00000F0FFFF00F8FFFF145F0110C48E01102B
:100B0000945E011001238340034A10681840431E7D
:100B10009841C0B27047C04600E100E0002A05D00D
:100B2000044BC0225200995019607047014A80233B
:100B3000D150FAE700E100E010B50A001F2303409E
:100B4000012199404009FFF7E9FF10BD01238340CF
:100B5000014A13607047C04600E200E0024B9B6808
:100B600010308000C058704700ED00E070B5040000
:100B70000D00EFF3108672B60C4B1B68002BFBD0F8
:100B8000BFF35F8F2000FFF7E9FF094B984201D0C8
:100B9000A84205D1320029002000FFF72DFF70BDCB
:100BA000044B054A0548E12103F0BCF8240100D0BC
:100BB000CD010010245F01101C8F0110945E011004
:100BC000F0B5DE4657464E464546E0B589B081460B
:100BD00001911500EFF3108B72B66F4B1B68002B61
:100BE000FBD0BFF35F8F6D4B00269E57002E40DB7E
:100BF0007400A419A4006A4824180622A256674B60
:100C00001A70684B9A684B4610339B00D35898462D
:100C10001B1A2F2B3BD9644B984531D105AF634B41
:100C20003B80634973009A46981980005C4B984654
:100C300040440230FFF722FF78805E4BBB80FF23E9
:100C4000BB71FD71019B0793330053449B004344E8
:100C500007CF07C301231C43A0465A4641464846D6
:100C6000FFF7CAFE09B0F0BCBB46B246A946A04693
:100C7000F0BD514B514A6E215148FF3103F052F8FB
:100C8000504B4E4ABA214E48490003F04BF801231D
:100C900042469A439246101A0C2101F063FA002949
:100CA0000FD153460027DA79AA4212D906215956A4
:100CB00000290DDB4A005218920039491F008B1899
:100CC000F1E7414B3D4A86213D48FF3103F02AF8C8
:100CD0001F00002F2ED005AB3C4A1A80813A5A8063
:100CE0000623FB560293002B17DA394805AB9A46C8
:100CF0009880029A9A71DD71019A0792381D21003D
:100D0000FFF7BCFEB880BE71254B720092199200AD
:100D10009B18524613CA13C39FE7381DFFF796FE70
:100D200001007000801980001D4BC0180430FFF7CF
:100D3000A5FEDBE705AF1D4B3B801D497300029309
:100D40009B199B00164A90461A0042440392901C3D
:100D5000FFF794FE7880039A101D5146FFF78EFE30
:100D6000B8801C4B52464146521A524153431B0D08
:100D7000BB71FD71019A0792029B9B199B00434432
:100D800007CF07C3114B52461380813B5380012389
:100D90001C43A04661E7C046240100D0FB2F02207F
:100DA0009815002000ED00E0CD01001000A1FFFF2C
:100DB000C815002001BDFFFF5C5F0110048F01100A
:100DC000945E0110845F0110AC5F011001480000C7
:100DD00001BD0000AAAA0000F0B5CE46474680B586
:100DE00083B006000D00EFF3108872B64F4B1B68FE
:100DF000002BFBD0BFF35F8F4D4B9A68340010344B
:100E0000A300D7584B4B9F4207D0AF4200D18AE096
:100E10000197494BFB1A2F2B09D942463900300064
:100E2000FFF7EAFD03B0C0BCB946B046F0BD3000E4
:100E3000FFF768FE814600213000FFF77DFEBFF31B
:100E40005F8FEFF30581002901D08C4211D101237E
:100E5000019C9C430020A3689D4212D00622A2560A
:100E6000002A0DDB53009B189B00334A2000D41846
:100E7000F1E7324B324AF4213248FF3102F052FF9F
:100E800020009D4249D106256557002D2BDB2A4BBA
:100E90006A00521992009B189A68A260DA79E2718E
:100EA0009B795BB2A371002B0FDA2748A080224BFD
:100EB0006A00521992009B18244A11789971157092
:100EC00049463000FFF738FEA7E768004019800068
:100ED000194BC0180430FFF7B9FD0100231D18009D
:100EE000FFF7CCFDE2E7002912D100280ED0FF2346
:100EF0008371174B838015490B78A3710E4A154BEC
:100F0000A41A644163431B0D0B70D9E7094FF2E744
:100F10001149201DFFF7D6FDD2E7104B084A0948BA
:100F20000F4902F0FFFE034F77E7C046240100D0CF
:100F300000ED00E0CD010010981500203060011098
:100F4000D48E0110945E011001BD0000FB2F022021
:100F500001BDFFFFAAAA0000D215002064600110A5
:100F60003502000070B505000C00FFF759FDAB0815
:100F70009B00C218116803232B40DB00FF20984020
:100F800081439C402143116070BD0000F8B50122EF
:100F900002432C4BD31A2F2B28D8EFF30583002BB9
:100FA0002AD0EFF3108472B6274909680029FBD0D4
:100FB000BFF35F8F234D25490600761B76417143B1
:100FC000090D4DB2224989689B00C958914219D038
:100FD0000021032930D81B4B4A00521892009B185D
:100FE0009B795BB2AB421DD00131F2E7194B1A4A33
:100FF0001A481B4902F096FE1A4B174A17481A491D
:1010000002F090FE124A92681849D150184B1A7893
:1010100082711D70BFF35F8F0B4B00221A6084F347
:101020001088F8BD074B4A005618B6009E19FF27D6
:10103000B771104AB280E9E70F4B074A07480F49DA
:1010400002F070FE98150020240100D0AAAA00002A
:1010500000ED00E06C600110A88E0110945E01109C
:101060006E0200009460011071020000CD010010BA
:10107000FB2F022001BDFFFFA060011082020000D3
:1010800010B5FFF7DFFC0100024B1800FFF76AFC08
:1010900010BDC046FC2F022010B582B00100074CE5
:1010A000074B0093052300222000FFF732FC0028A5
:1010B00001DB1F23181A02B010BDC046FC2F02200E
:1010C000A860011070B504000E001500FFF76AFC5F
:1010D0000100200000F006F8A680E580BFF35F8FD6
:1010E00070BD0000024B9C4661448900016070475E
:1010F0004000003410B50400FFF754FC010020004C
:10110000FFF7F0FF01235B426360BFF35F8F10BD09
:1011100010B50400FFF746FC01002000FFF7E2FFD6
:1011200001235B42636000232372BFF35F8F10BD16
:1011300010B50D4C09E00D4B0D4A0E481A2102F076
:10114000F1FD2000FFF7D6FF08340B4B9C4209D27B
:101150002368002BF5D0012BEDD12000FFF7D8FF3D
:101160000C34F2E710BDC046D41B0020C46001104F
:10117000B08F0110E4600110E41B0020000408435C
:1011800070470000F0B5DE4657464E464546E0B58E
:1011900087B0EFF3058303221A409146B24B9200C9
:1011A000D7583B784B4507D101234A4693409A468E
:1011B000AE4B52461A6021E1AD4BAE4AAE48922189
:1011C00002F0B0FD7A6973009B19DB0090469844E9
:1011D00043469C68DD68A94800F03AFC001BA94121
:1011E000002900DA12E1002D74DB43461B699B469F
:1011F000A34B9B454FD00823F85E4346598889B2DC
:10120000FFF7BCFF43465969D84702900391029902
:10121000039A0B00100013435CD013000A0000284F
:1012200047DAA41A9D41009401954346009C019D14
:101230009C60DD600021595E002900DAE6E07869F3
:101240004B005B18DB00C3189A68DB68A41A9D4149
:10125000002D00DADAE039813D000835844604913A
:101260002A000597B346009E019F049B002B2ADBB2
:101270000023D45E63001B19DB0063449C68DD68B7
:1012800030003900001BA94100291CDB1A00002195
:10129000595E0491E9E743465B699B461B695846E2
:1012A0009847002816D05B461A685B680292039341
:1012B000ADE7724800F0CCFB029B039C1B184C412D
:1012C00000930194B1E70499059F5E464346198057
:1012D00016809BE0434600229B5E3B813A69EFF318
:1012E000108372B611680029FCD0BFF35F8F022112
:1012F0007A5E41460A807E803A69BFF35F8F0021A3
:10130000116083F3108881E03969EFF3108372B6BE
:101310000A68002AFCD0BFF35F8FB88800B20122B0
:101320005242BA803A69BFF35F8F0021116083F3A4
:1013300010880500BC461CE0049300229A5E002A37
:101340000EDB049B0021595E4B005B18DB006344FD
:101350009868D96834003D00241A8D41002DEBDADD
:1013600004995D46009B9C4644460D800023E55E43
:101370002280002D12DB634658696C006419E4007A
:101380000419A668E7686146083108229A5EAB46F0
:10139000049163460093A0468446D0E767463AE04E
:1013A0000023BB71390008310823F85E0EE00124E8
:1013B0006442E5179460D56008243B5F834204D003
:1013C0000E8008243B5F138038813000431C25D0F9
:1013D0007C6943001B18DB00E218E65E53881BB2F1
:1013E000002BE4DB1100F0E76B1C24D1234800F054
:1013F0002FFB241A8D41002D2EDC2BD01F4B524683
:101400005A630823FE5E002E00DBDBE6BB881BB2BE
:10141000002B00DB78E7BB79002BC1D10823FA5EF3
:10142000002A19DB796953009B18DB00CB189C68F4
:10143000DD68631CD8D011498A6AA01A4B46043370
:101440009B005B589B1A9842D0D24B4604339B00BA
:101450005C50CBE7002CD1D040BF07B0F0BCBB46FE
:10146000B246A946A046F0BDEC2900203C700540DC
:1014700080610110F08F0110AC6101100040054047
:101480008511001070B504000D0011000126AE405A
:1014900006622800FFF76AFB01212800FFF74CFBDA
:1014A000024B9C466444266070BDC0463820000054
:1014B000F8B5CE46474680B50600894690461F00DF
:1014C000C160FFF76FFA154B9C46604480003061A5
:1014D00043463370BBB27381D02212061278727009
:1014E000012252423281B2809B187380002406E0B0
:1014F000621E736965002D19ED005A530134BC4218
:10150000F6D3074B42469200D650064A414648461B
:10151000FFF7B8FFC0BCB946B046F8BD4000003484
:10152000EC2900208511001070B50C001500012376
:101530008B40084A94466044036001212000FFF775
:10154000FBFA29002000FFF747FC200000F068FAB2
:1015500070BDC0463830000010B5084B1A68EFF374
:10156000108172B61368002BFCD0BFF35F8F034865
:1015700006F07CFD0020002110BDC046AC2E0020EE
:1015800010B5064B1B69002B01D0044810BD044B5D
:10159000044A0548652102F0C5FBC046E01500205D
:1015A000F4610110D88F0110AC61011070B5050015
:1015B0000E00182001F0E0F9041E0ED018213000B2
:1015C00001F0F0F960610121280000F031FA020019
:1015D000330029002000FFF76BFF200070BD0000E2
:1015E00010B50400134B984215D00178124AC06818
:1015F000FFF79AFF2378114A99008A58A24211D125
:101600000E4A9B0000219950606901F0FBF920000F
:1016100001F0F8F910BD0A4B0A4A2E210A48FF31A1
:1016200002F080FB094B074A99210748490002F064
:1016300079FBC046E015002085110010EC29002040
:1016400064600110C48F0110AC61011018620110B8
:10165000F8B504000569EFF3108072B62968002917
:10166000FCD0BFF35F8F0221665E65697100891946
:10167000C9006D18002E02DB0027E95F6180216937
:10168000BFF35F8F00270F6080F31088002E2CDBE4
:101690000699296107996961AA60EB606B8801333B
:1016A0005B04590C002B00D1012169803000FFF749
:1016B00065FD2169EFF3108372B60A68002AFCD039
:1016C000BFF35F8FA2882A80A6802269BFF35F8F55
:1016D0000021116083F31088E368217801228A4099
:1016E00003498C4663441A60F8BD01204042FBE781
:1016F0003C20000070B582B0060014001D0008AB4D
:101700001B78002B07D100F0D5F922002B00121A0C
:101710008B41002B0ADB079B0193069B0093220061
:101720002B003000FFF794FF02B070BD0020FBE7F4
:10173000F0B5C64600B584B00500884616001F0007
:101740000AAB1C78FFF71CFF0294019700962A0051
:101750004346FFF7CFFF04B080BCB846F0BD0000A1
:1017600030B504000A1443899A422EDA40695300C6
:101770009B18DB00C3182569EFF3108272B6286846
:101780000028FCD0BFF35F8F588885B20904090C8C
:10179000884212D000202369BFF35F8F00211960B7
:1017A00082F31088002811D0E368217801228A4052
:1017B00007498C4663441A6008E00649294389B208
:1017C00059800123A3710120E5E7002030BDC04608
:1017D0003C2000000080FFFF10B50400FFF7D0FEA2
:1017E0002100FFF7BDFF10BD40787047F0B583B012
:1017F00006000F00EFF30583002B1AD196246442F4
:10180000E517A4197D418D4202D803D1844201D944
:101810000024002500F04EF922002B00121A8B4103
:10182000002B0BDC08D03000390000F055F903B074
:10183000F0BD1348FFF720F8002AF4D0114A002326
:10184000009320002900FFF773FF00280DDAEAE774
:101850000D4B1A68EFF3108172B61368002BFCD0A1
:10186000BFF35F8F084806F0B1FB084B5B6A9D42EF
:10187000EED80649896AA142D5D29D42D3D1E7E785
:101880005862011059150010AC2E00200040054090
:1018900070B504000D0000F00DF900196941002930
:1018A00002DBFFF7A3FF70BD012040420049F8E7CB
:1018B000FFFFFF7F10B5FA2292000023002100F005
:1018C000E7FFFFF7E5FF10BD70B582B005000C0023
:1018D000EFF30583002B12D0364B5B6A8B4209D3A2
:1018E000344A926A824208D28B4201D0012002E03F
:1018F000002000E0002002B070BD0120FBE7FFF7F0
:101900003FFEC16803788A6A2E00A81A04339B0040
:101910005B589B1A984212D320BF264B5B6A9C42AD
:1019200009D8244A926A954207D99C4201D00120E5
:10193000E1E70020DFE70020DDE70120DBE71E4ACA
:101940000023009328002100FFF7F2FE002818DD95
:10195000184B5B6A9C4205D8164A926A954202D996
:101960009C4200D120BFFFF737FF124B5B6A9C42BD
:101970001BD8104A926A964219D99C4213D0012072
:10198000B9E70C4B5B6A9C4209D80A4A926A9542B5
:1019900007D99C4201D00120ADE70020ABE7002031
:1019A000A9E70120A7E70020A5E70020A3E7012081
:1019B000A1E7C04600400540591500100048704797
:1019C0000040054010B50B4B1B69002B04D00A48A2
:1019D0000A21FFF787FB10BDFFF7F0FF040003218A
:1019E00000F00CF80348102303222100FFF760FDEC
:1019F000EDE7C046E0150020AC2E002010B5024AED
:101A00000248FEF76DFF10BDA8620110982000206B
:101A100010B50248FEF7A6FF10BDC0469820002072
:101A200010B501000148FFF7F3FF10BD004005406D
:101A300000B583B00448054B009303230022FEF752
:101A400068FF03B000BDC04698200020CC620110A2
:101A50000200436A906A1900536A9942FAD17047AA
:101A6000416A00E0416A9942FCD300E0416A994230
:101A700002D1816A9142F9D37047F0B5C64600B5EC
:101A8000804614001D00FFF7E3FF06000F00220050
:101A90002B0092197B41994202D804D1904202D97D
:101AA00001225242D3174046FFF7DAFF80BCB84606
:101AB000F0BD000010B50248FFF7CAFF10BDC046D8
:101AC0000040054010B502000B000248FFF7D5FFAB
:101AD00010BDC0460040054010B502000B00024892
:101AE000FFF7BEFF10BDC04600400540074B9842BF
:101AF0000AD0162301229A40054B1A60054B1B6839
:101B000011009943FAD170471723F3E7008003408F
:101B100000F0004008C0004070B5046BE30701D43A
:101B2000200070BD0B4BC3180B4A1A60456A836ACC
:101B3000AD01ED18AD02062000F016F9074900F0DE
:101B400011FB0100280000F00DFB0021FFF7BAFF98
:101B5000E6E7C04630300000010300004E0E0000F2
:101B600070B504000E001500FFF7D6FFE36A5E4073
:101B70003540024BE3181D60206370BD2C1000003F
:101B800070B505000C00062000F0EEF8C000210042
:101B900000F0E8FA0130C60907D00E4B9E4215D876
:101BA000400834003F26064000E001246C62AE622B
:101BB000002200212800FFF7D3FF062000F0D4F810
:101BC0008000A101891900F0CDFA70BD0026024CF9
:101BD000ECE7C046FEFF0000FFFF0000002909D02F
:101BE0000A22064B9C46604443425841044B400045
:101BF000C252704780225200F3E7C0460080FCBF0B
:101C0000B02E002070B504000D00062000F0ACF8E6
:101C100000281ED0104B9C421CD01622012393405A
:101C20000E4A13602000FFF761FF00212000FFF73C
:101C3000D5FF29002000FFF7A3FFE26A70235A4076
:101C40000E331340064AA2181360064B2363032386
:101C5000A36470BD1722E1E70080034000E000406C
:101C60002C10000001030000F8B5D646474680B5A9
:101C700006000D001700984644002418A400294BC4
:101C80009C4664446368089A934200D26260331FA2
:101C9000DBB29A46012B2ED980221201C0239B0170
:101CA000E3181A60204BB200D158002907D05869B8
:101CB00000F058FA013043001B18033BFDD27F01AE
:101CC00023685F40E0233B4080225201A21813604A
:101CD0005346012B1AD980239B01E318802212015D
:101CE0001A60089B6360104BB6004246F250C0BCBD
:101CF000BA46B046F8BD012DCED10322C0239B01C8
:101D0000E3181A60A368DB07FCD5D8E721686940AF
:101D100003230B401360A3680122AA401A42FAD0A1
:101D2000D9E7C04600800040A0200020F0B583B075
:101D300005000E0017001800089900F013FA0300C0
:101D4000089A140200943A0031002800FFF78CFF33
:101D500003B0F0BD10B582B0802464000094FFF79A
:101D600083FF02B010BD0000014B8000C0587047D7
:101D7000A0200020F0B5C64600B504000E001700F4
:101D80001D00374800F0EEF98046364BFA18364B06
:101D90009A4239D80100380000F0E4F90200103A04
:101DA00098235B009A4235D86B1E062B38D8069BC9
:101DB000013B062B34D83F09474537D32D04069BFA
:101DC0001B031D432368002B36DB284B9C4244D069
:101DD0000C2201239340264A1360264A1360264AA8
:101DE0001268190091430A1EF9D12660A060234BA6
:101DF000E31821321A602268002AFCDAE560082222
:101E00001A6080BCB846F0BD1D4B1E4A1E48112109
:101E100001F088FF1D4B1B4A1B48192101F082FF6E
:101E20001B4B184A18481C2101F07CFF194B154A1E
:101E30001548232101F076FF22683F231340B34267
:101E4000C3D1A3681B051B0D8342BED1E368EE22FC
:101E5000D2021340AB42B8D1D3E70D22B9E7C04656
:101E6000001BB70080E84BD380F8A93200C00240C5
:101E700000E0004000F0004008C0004004300000D6
:101E8000E0620110109001103063011080630110B6
:101E90009C630110E863011080239B000B43014AFF
:101EA000D36270470080054010B5010018231B88DD
:101EB00014221088984710BD10B5010018231B8804
:101EC00016221088984710BDF0B5C64600B5070029
:101ED0000E0000250123984600E00135B5420AD2E4
:101EE000AC003C192068FFF7DFFF20600028F4D128
:101EF00000239846F1E7404680BCB846F0BD00009C
:101F0000064BAA2212011A602F22DA60044B054AFE
:101F10001A60024B5B68002BFBDA704700400240FE
:101F20000060024000B0FA0010B5040001E008CCE7
:101F30009847024B9C42FAD310BDC046245B011067
:101F40007047000010B50248FFF7EEFF10BDC04615
:101F5000E85A011010B50248FFF7E6FF10BDC04671
:101F60001C5B0110054B064A1A60064B064A1A60B4
:101F7000064B1A68044B9343FAD1704700E00040C7
:101F8000BFCDFBFE00F00040FE7F3C0008C00040DB
:101F9000044BDB6C002B03D1034B8022D2021A606E
:101FA0007047C046000011504C201150044B054AA8
:101FB0001A60054B1B68DB43DB01FAD17047C04652
:101FC00000F00040FFFFFF0108C00040034B40222B
:101FD0009A675A671A67DA667047C04600F0014090
:101FE00010B5FEF7F9FC10BD70B5044DA968044C9E
:101FF000C022200000F024FDAC6070BD00ED00E0C8
:102000000000002070B50420FFF7AEFE064900F086
:10201000A9F805000024002C00DD70BDE0B2290005
:10202000FFF73AFF0134F6E740420F0030B583B0C6
:10203000274B00229A67FFF763FF264B01221A60A5
:10204000234B5B6C012BFBD1234B03221A60204BEB
:102050009B6B012BFBD10133009304331F4A0121F9
:102060001F48FFF787FE052300931E4A01211E48E3
:10207000FFF780FE1D4B002202210420FFF76AFEBD
:102080001B4D2B00002201210520FFF763FE194C98
:102090002300002200210720FFF75CFE230000221E
:1020A00000210820FFF756FE8023DB000093230069
:1020B000002200210920FFF739FE2B000022002119
:1020C0000620FFF747FEFFF79DFF03B030BDC04677
:1020D000008000403CB0004030B00040002F685904
:1020E00000800240008C864700C00240001BB70001
:1020F00040597307006CDC0201480421014B18476A
:1021000000160020C91E0010014B9B6818470000F4
:1021100000160020124A936F9B0815D29066D16674
:10212000002905D0FFE7FFE7FFE7516F106F704709
:1021300004B580210906C2175140002800D0C843C9
:1021400013F062FC002104BDF0B5146E556E576F9C
:10215000166FFFF7E3FF1466556657671667F0BD05
:10216000000000D0114A936F9B0813D2106651668D
:10217000002905D0FFE7FFE7FFE7516F106F7047B9
:1021800004B5002801D00020C04313F03DFC00211D
:1021900004BDC046F0B5146E556E576F166FFFF74D
:1021A000E5FF1466556657671667F0BD000000D05E
:1021B00094464A4A926F9208624601D228E0C0468D
:1021C000F0B5464E346E756E776F366F00F020F8BE
:1021D0009446424A14665566576716676246F0BDD4
:1021E00094463E4A926F9208624601D254E0C0463D
:1021F000F0B53A4E346E756E776F366F00F04CF86E
:102200009446364A14665566576716676246F0BDAF
:10221000002B24DB11D000293EDA00B5C94340422F
:1022200000D1013100F038F8C943404200D10131FA
:10223000DB43524200D1013300BD002AEBD100281C
:1022400001D1002905D00020C90FC90701D1C04321
:10225000410800B513F0A8FB0022002300BD00B523
:1022600000290ADBDB43524200D1013300F014F8AD
:10227000C943404200D1013100BDC943404200D1B1
:102280000131DB43524200D1013300F005F8DB435A
:10229000524200D1013300BD002923D1002B18D1B7
:1022A000002A0CD0BC460D4F38667A660021002308
:1022B000FFE7FFE7FFE77A6F386F67467047002850
:1022C00001D00748010000B513F06EFB0022002387
:1022D00000BD02000B00002000217047000000D06C
:1022E000FFFFFFFF002B00D0BFE0130C28D1002A16
:1022F000E7D080B4114F39667A66FFE7FFE730B464
:10230000040C7B6F396F1B0423433B667A66FFE73F
:10231000FFE7FFE7C04684B27B6F3D6F1B0423439A
:102320003B667A66FFE7FFE7C04600232C042D0CCE
:102330007A6F386F00196941B0BC7047000000D057
:10234000F0B594460025140E01D112020835140F81
:1023500001D112010435940F01D192000235D40F3E
:1023600001D152000135D40B0134254F7C66254C38
:102370003C660E0C93B2FFE7FFE7FFE73C6F664356
:10238000360C7703BE467343DF0B5B04C01AB941BA
:10239000130C7343DB18C91ACE086643360CB644D7
:1023A00093B273431F0F1B01C01AB941130C73433F
:1023B0001F0B1B05C01AB941860D8F023E436643B1
:1023C000360C092D24DB520A7243801A7703460A21
:1023D0006643360C16235B1BDE40DF40BF196446A4
:1023E0006643821B7046043506330100D940A8407D
:1023F000C01900D30131A24206D20023F0BD000073
:10240000000000D0FFFFFFFF121B0130F3D3F1E704
:1024100009277F1BFE406446A2B27243801A00D295
:102420000139220C7243130C1204821A99410B00D9
:102430007046043513370100F940A840801900D3D5
:102440000131002B02D1A2420AD2F0BD013000D3EB
:102450000131121BFAD2013BF8D1A24200D2F0BDE9
:10246000013000D30131121BF7E7F0B51C0C00D08E
:1024700080E00CB400251C0A04D11B02160E334365
:10248000120208351C0B04D11B01160F3343120135
:1024900004359C0B04D19B00960F33439200023508
:1024A000DC0B02D192185B4101351C009718644186
:1024B0000134464F7C66464C3C660E0CFFE7FFE756
:1024C000FFE7C0463C6F6643360C7703BE4697B2C3
:1024D0007743C01B00D20139C01B00D201399FB223
:1024E0007743C91BC91B170C77437E04FF0B801B66
:1024F000B941CE086643360C0C2D33DBB644120BC3
:102500001F053A431B0B97B27743C01B00D201391A
:102510009FB27743C91B170C77433E043F0C801BC7
:10252000B941860D8F023E43664329277F1BFE403B
:102530000C3D7746AF40BF1930BCA2B2ABB272437C
:102540007343801A9941220C7243130C1204801AAF
:10255000994102000B000137001BA941F9D2781EF6
:102560000021F0BD0C277F1BFE4077467F0BAF405C
:10257000FF19E0E700245D1C07D0144F7D66396623
:10258000FFE7FFE7FFE7FFE73C6F95B29EB26543C9
:102590006643401BB141150C1E0C6543664336046F
:1025A0002F0C3E432D04401BB141994204D202003E
:1025B0000B0020000021F0BD01D19042F7D3801A1A
:1025C000994101349942F2D3F6E70000000000D0AF
:1025D000FFFFFFFF48404140484018B4134B5B6881
:1025E000019308BD18B4114B1B68019308BD9446B4
:1025F0000F4A926F920805D2624618B40B4BDB6803
:10260000019308BD0A4AF0B5146E556E576F166FE8
:102610006246FFF7F2FF064A14665566576716676B
:10262000F0BD18B4014B9B68019308BDA82C002095
:10263000000000D0FFB550404240504059404B4050
:10264000594000E0FFB5154F4C00640D03D0BC426B
:1026500004D10C0314D80020090D09055C00640D99
:1026600003D0BC4204D11C030AD800221B0D1B0559
:1026700001264B4009D44B4003D58B4200D1824206
:10268000FFBD9942FCD19042FFBD0B43DB180343D1
:102690001343F5D0C9434918FFBD0000FF070000F0
:1026A00000B5FFF7CFFF804100BDC04600B5FFF782
:1026B000C9FF01D9002000BD012000BD00B5FFF712
:1026C000B9FF01D9002000BD012000BD00B5FFF712
:1026D000B1FF804100BD012040054A00121804D816
:1026E0005A00121801D800207047012070470000DE
:1026F0000021002805D17047C1174840401AFAD080
:10270000C90713B5064B1B6898470CBC441CA24074
:102710001005120B0349091B09051943114310BD8C
:10272000A82D00201F04000010B54C00620D80236E
:10273000D218DB00D21A5B057E2A10DD9E3A13DA2E
:10274000CC170903490819435242D14064000134AF
:102750001532202A05DAD0400843604310BD00201E
:1027600010BD0846604310BDC80FC018013810BD29
:1027700018B4024B5B6A019308BD0000A82C00202E
:1027800010B50148FEF778F80464011070B5132302
:102790001C78012C12D0012C12DC214B214A9364AD
:1027A0002148FFF781FB214B186070BD20491D4A6D
:1027B0009800815001331F2BF8D9ECE70023FAE78A
:1027C0001C48FFF779FB05001B48FFF775FB023833
:1027D00003789B007F2B09DD12488022290000F03E
:1027E0002FF9022C08D0022CDADCD6E7134B144A5E
:1027F0001448332101F096FA134B1A88B5231B02B3
:102800009A4209D1114B1A88114B9A4204D1114BAB
:102810001A88114B9A42E6D00020FEF72DF8C046E8
:102820005D280010A82C00204C330000A82D0020AB
:102830008127001053440000534600001C6401101F
:102840001C9001106064011054380000D83800005A
:10285000494600009C3800005946000007B5604614
:10286000002800D100BE01880A0A0230DF2AFAD10E
:10287000C9B2820804D3028840880004104300E0F3
:102880000068024A5050039007BD0000A82C0020A9
:1028900051434343C9188C46110C83B24B4310B4C7
:1028A000040C614392B280B2504362431C041B0C7F
:1028B000001910BC59411304120CC0185141614455
:1028C0007047000010B50148FDF7D6FFB06D01104C
:1028D00070B513231E781848FFF7EEFA0500012E95
:1028E00011D0012E09DDAB1E1B789B007F2B1DDD57
:1028F00012488022290000F0A3F81148FFF7D4FA0B
:10290000104B186070BD0D485422290000F098F853
:10291000002300E001331F2BE3D8084A9C00A25893
:10292000002AF7D10849054AA150F3E7074B084AA6
:102930000848422101F0F6F953460000AC2D002072
:102940004C330000A82D0020C5280010C0640110E1
:1029500030900110F464011010B5002804D0401824
:10296000034B984200D810BD0248FDF785FFC046D2
:10297000000004205465011070B50500084E3000B9
:1029800013F09AF8280010F0C1FF0400300013F093
:1029900003F829002000FFF7DFFF200070BDC046CC
:1029A000D41B0020F8B506000C00094F380013F0C6
:1029B00083F82100300010F0F7FE0500380012F017
:1029C000EBFF210071432800FFF7C6FF2800F8BD88
:1029D000D41B002070B504000D00094E300013F028
:1029E0006BF82900200011F029FB0400300012F0E0
:1029F000D3FF29002000FFF7AFFF200070BDC046C5
:102A0000D41B002070B50400054D280013F054F8C5
:102A1000200010F085FF280012F0BEFF70BDC046F8
:102A2000D41B002001480421014B18471016002038
:102A3000C91E0010014B1B6818470000101600202B
:102A4000014B5B6818470000101600209A4200D224
:102A500088547047704710B5002802D00B68496849
:102A6000984710BD0100002007E083001B185B00A1
:102A7000501C08601078C01830380A681378303B52
:102A8000DBB2092BF1D97047F0B5DE4657464E460A
:102A90004546E0B583B093461F000C9B9A460D9CBB
:102AA0000E9B99460F9B9B0717D0B8460F00060058
:102AB00022E0551C4B4641462020B84701342A00ED
:102AC000B442F6D33D004F465C46019B9B46B1465F
:102AD0004646B84637002E000EE00192A3468846CF
:102AE0004E46B9460700EBE7013C551C5346185DBE
:102AF00043463900B0472A00002CF5D135003E008E
:102B000047460F9B9B0711D4100003B0F0BCBB4697
:102B1000B246A946A046F0BD541C4B464146202073
:102B2000B8472200531BB342F6D3EDE7B0464E46FA
:102B3000B9462F005D46F5E7F0B5CE46474680B56D
:102B400085B0944698460C9D0D9C0EAB1B7899461B
:102B5000109A119B129EB7071CD4002B0CD0F707BC
:102B60000AD54F46002F02D10C37374204D0013B23
:102B700002E030272F550134944201D21F2CF8D99E
:102B8000F70707D59C4205D21F2C03D830272F55B5
:102B90000134F5E7F70612D5770505D4002C03D0EC
:102BA000944221D09C421FD00F9A102A2FD00F9A06
:102BB000022A36D01F2C0AD830222A5501341F2C65
:102BC00005D84A46002A32D02D222A5501340396D0
:102BD00002930194009543466246FFF755FF05B006
:102BE000C0BCB946B046F0BD621E012C17D00F9F85
:102BF000102F0BD014000F9A102AD8D1B206D6D5B8
:102C00001F2CD4D858222A550134D3E7023CB206EF
:102C1000F1D41F2CEFD878222A550134CAE71400CA
:102C2000C2E71F2CD3D860322A550134C2E772079D
:102C300003D52B222A550134C9E73207C7D52022F4
:102C40002A550134C3E7F0B5DE4657464E464546A1
:102C5000E0B593B081468A46089209931CAB10CB2D
:102C60001B789B461E9D219B9846002C03D1102368
:102C700042469A4390468023DB0046461E40424629
:102C80001A4218D0002C22D0002614E042469206A8
:102C90001BD54121C918C9B20A39C9B2771C0AAB80
:102CA000995529002000FFF75DFAAC4210D31F2F81
:102CB0000ED83E00040029002000FFF753FACBB2E3
:102CC000092BE3D83033D9B2E8E76121E2E72700E6
:102CD00043460693209B05931F9B049303955B46F5
:102CE000029301970AAB0093099B089A5146484604
:102CF000FFF722FF13B0F0BCBB46B246A946A04680
:102D0000F0BDF0B5DE4657464E464546E0B597B0B5
:102D10000A900B910C929A46209B9946219F22AAD9
:102D200013789B46249B0993259C289B98464A46EA
:102D30003A4302D11032934398468022D20045464E
:102D40001540434613420AD04A463A4341D0002533
:102D50002E0053460D934D46099B9A4621E02E00C6
:102D600053460D934D46099B9A461AE042469206F9
:102D700023D54122D218D2B20A3AD2B2731C994654
:102D80000EAB9A555246230028003900FFF728FA67
:102D9000BC4220D813D04B461F2B16D84E460500F8
:102DA0000F005246230028003900FFF719FAD3B26A
:102DB000092BDBD83033DAB2E0E76122DAE7AA4543
:102DC000E9D94E460D9B9A4608E04E460D9B9A4621
:102DD00004E0002602E04E460D9B9A4643460693C9
:102DE000279B0593269B0493099B03935B460293C1
:102DF00001960EAB009353460C9A0B990A98FFF775
:102E00009BFE17B0F0BCBB46B246A946A046F0BD3B
:102E1000F0B5DE4657464E464546E0B591B0804691
:102E200089460C929A461A9C1B9D22002B0020007A
:102E30002900FFF750FC002800D0F2E001225242A6
:102E4000D54B20002900FFF741FC002800D0E8E026
:102E500001225242D14B20002900FFF721FC00281B
:102E600000D0DEE00022002320002900FFF718FC3C
:102E7000002800D0EAE0069407958023DB001E9A24
:102E80001A400D921E9A1A4201D106231C930698ED
:102E9000079902000B000892099303000A000243FD
:102EA00000D1DFE0080D4005400DBD4EB446604442
:102EB000079E3203120B1E00BA4B13431F00FFF78D
:102EC0001BFCB94AB94BFFF7ACFBB94AB94BFFF74A
:102ED00089FB089009910022B74B30003900FFF7B9
:102EE0007CFBB64AB64BFFF79CFB02000B00089830
:102EF0000999FFF777FBFFF717FC8346FFF7FCFB09
:102F000006000F00AF4AB04BFFF78BFB0022AF4B20
:102F1000FFF768FBFFF708FC0890AD4AAD4B3000A7
:102F20003900FFF77EFB06000F000898FFF7E4FB6F
:102F3000A94AAA4BFFF775FB02000B0030003900CD
:102F4000FFF74BFB06000F0002000B00FFF769FBC9
:102F50000A900B91089BA24A9446634400210022E8
:102F6000089109921B0509930023089332003B0046
:102F700030003900FFF736FB0E900F9132003B0016
:102F800000208021C905FFF728FB06000F00002262
:102F9000944B0A980B99FFF72AFB0022924BFFF7FC
:102FA00021FB02000B000A980B99FFF720FB00227F
:102FB0008E4BFFF717FB02000B000A980B99FFF7E7
:102FC00016FB02000B0030003900FFF70BFB02007C
:102FD0000B000E980F99FFF70AFB0022714BFFF7C9
:102FE00001FB089A099BFFF71CFB06000F000896DF
:102FF0000997069A079BFFF769FB00280BD001236E
:103000005B429C46E3440022774B30003900FFF7D7
:10301000EEFA089009915B466333C62B45D8042627
:1030200023E01E9B04931D9B03931C9B029300941F
:10303000019553460C9A4946404600F0FBF811B002
:10304000F0BCBB46B246A946A046F0BD0021002216
:1030500006910792069480231B069C46AC44634667
:1030600007930AE700239B4604261E9B1B0528D5D1
:10307000089A099B190011430FD05D4A5D4B0698D1
:103080000799FFF71BFB00287AD000225A4B0698BD
:103090000799FFF705FB002872D01C9B5B4506DDF6
:1030A0005A469B1A013B1C9303E00526DDE70023EB
:1030B0001C938023DB001E9A1A431E9200260023D5
:1030C0009B461D9B9E4265D29F1B02231E9A1A405F
:1030D0000A921E9A134202D0002E00D000275B46AF
:1030E000002B07D0089A099B06980799FFF77FFAEB
:1030F000069007910022002320002900FFF7D0FA54
:10310000002800D07CE03D4B1E9A134004930397A7
:103110001C9B0293069B079C0093019453460C9AB8
:103120004946404600F086F8002E00D187E71E9BF6
:103130009B0671D54525441C53460200494628008C
:10314000C0475A46D317D2185A4005230593013E6B
:103150000496002303930A3302935B46DB0F01932B
:1031600000925346220049464046FFF76CFD0A9BF9
:10317000002B00D163E7020047460C9E1D9D53E0E3
:103180001C9B002B9DD00D9B002B9AD01C9B013BC0
:103190001C9396E7002798E7FFFFEF7FFFFFEFFF05
:1031A00001FCFFFF0000F03FFB799F501344D33F29
:1031B000B3C8608B288AC63F0000F83F61436F6345
:1031C000A787D23F71A379094F930A400000E03FDF
:1031D0001655B5BBB16B0240EF39FAFE422EE63F01
:1031E000FF03000000002C400000244000001840B5
:1031F0002D431CEBE2361A3F80842E41FFF7FFFF80
:10320000069C079D22002900802000068446614418
:103210000B000692079376E765258CE7541C53460E
:1032200049462020B8472200931BAB42F6D310003A
:1032300005E7C046F0B5DE4657464E464546E0B582
:1032400095B00690079193469946209F1E9A1F9B22
:1032500010001900FFF73FFA002831D10122524235
:10326000BC4B1E981F99FFF71BFA002837D101228B
:103270005242B94B1E981F99FFF728FA00283DD1FA
:103280000022B64B1E981F99FFF720FA00284AD15A
:103290000022B34B1E981F99FFF702FA002842D173
:1032A000002200231E981F99FFF7FAF900284AD13F
:1032B00000239846229B5B0500D4B0E0002452E036
:1032C000229B0393219B029303230193A54B00931D
:1032D0004B465A4607990698FFF7D6FB08E1229B12
:1032E0000393219B0293042301939F4B00934B462E
:1032F0005A4607990698FFF7C7FBF9E0229B5B0740
:103300000ED59A4B042222990391219902910192A0
:1033100000934B465A4607990698FFF7B5FBE7E03E
:10332000934B0322EFE7229B0493219B0393029785
:103330001E9B1F9C009301944B465A460799069882
:10334000FFF766FDD4E01E9A1F9B00200021FFF7C7
:1033500044F91E901F9101239846ABE70CAB302235
:103360001A55013F01341F2C01D8092FF6D81E9899
:103370001F99FFF7D9F90500FFF7BEF902000B000E
:103380001E981F99FFF729F97A4BFA009B181A68C3
:103390005B680A920B93FFF744F908900991FFF7D5
:1033A000E7F90600FFF7A4F902000B000898099955
:1033B000FFF713F90890099100226F4BFFF786F988
:1033C00000282ED001363000FFF792F902000B00E2
:1033D0000A980B99FFF76AF9002801D001350026F9
:1033E000002F2CD12800FFF787F902000B001E9850
:1033F0001F99FFF7F2F806000F0000225E4BFFF75F
:103400004FF9002846D100225B4B30003900FFF70E
:103410005DF900283ED1EB073CD501353AE006279F
:103420004CE70022544B08980999FFF739F9002816
:10343000D6D1002E01D0F307D2D50136D0E7AA4667
:103440001F2C11D8013F0A213000FEF78BFE651CAE
:1034500030310CAB19550A213000FEF783FE092EDE
:103460000ED906002C00EBE755461F2C0CD87B1E0E
:10347000002F09D00CAA302111551F000134F4E7A8
:103480002B0055461C00F0E71F2C03D80CAB2E2256
:103490001A5501341F2C10D80A212800FEF73AFED5
:1034A000661C30310CAB19550A212800FEF732FE9C
:1034B000051E01D03400EDE734000323229A1340A7
:1034C000012B1CD01F2C06D84346002B32D00CAB4E
:1034D0002D221A550134229B0393219B02930194C0
:1034E0000CAB00934B465A4607990698FFF7CCFA67
:1034F00015B0F0BCBB46B246A946A046F0BD219B24
:10350000002B13D04346002B02D10C3313420FD0B3
:10351000219B013B2193190003E00CAB30221A558B
:1035200001348C42CED21F2CF7D9CBE72199F8E792
:103530002199F6E7229B5B0704D50CAB2B221A5589
:103540000134C8E7229B1B07C5D50CAB20221A55B6
:103550000134C0E7FFFFEFFFFFFFEF7F65CDCD41F7
:1035600065CDCDC1A4650110A86501109865011055
:10357000A0650110389201100000E03FF0B5DE4672
:1035800057464E464546E0B593B007008A469346F7
:103590001193002900D12CE3002508E06C1C5B4648
:1035A0002A005146B847119B013311932500119B06
:1035B0001878002800D11EE32528EFD1013311939C
:1035C0000023180020E00123184301321192012446
:1035D00018E00223184301321192012412E004235F
:1035E00018430132119201240CE0082318430132E0
:1035F0001192012406E01023184301321192012494
:1036000000E00024002C09D0119A1378203BD9B295
:103610001029F6D88B00C449CB589F468146119B90
:103620001A781300303BDBB2092B10D92A2A13D0A9
:103630000B94119B1A782E2A20D0119A1378683B8C
:10364000D9B2122965D88B00B849CB589F4611A82A
:10365000FFF708FA0B90ECE71C9B1A1D1C921B68E5
:10366000002B04DB0B93119B01331193E1E7022242
:103670000100114389465B420B93F4E78022D2009C
:103680004946114389465A1C11925A781300303B1F
:10369000DBB2092B0BD92A2ACFD11C9B1A1D1C92F5
:1036A0001C68002C08DB119B01331193C5E711A89E
:1036B000FFF7D8F90400C0E70024F4E780235B009B
:1036C00049460B43511C119151786C2901D0994600
:1036D0001FE0C0239B0049461943894602321192DC
:1036E00017E0802349460B43511C119151786829FA
:1036F00001D099460DE0C02349461943894602325C
:10370000119206E080235B00494619438946013245
:103710001192119B187867281CD8252800D25EE2E8
:103720000300253BDAB2422A00D958E29300804ACE
:10373000D3589F4680239B0049461943894601324E
:103740001192E6E780235B0049461943894601321E
:103750001192DEE7782800D941E2692800D23EE2E2
:103760000200693AD2B201239340724A134210D147
:103770001A0600D50CE25B0500D430E21C9B1A1D32
:103780001C921E68002C00D0BAE101225242330084
:1037900096E16F2842D005D8582841D0622803D13D
:1037A000022606E078283DD010234A469A439146E7
:1037B0000A26582838D0692805D0642803D00C225E
:1037C0004B46934399464B465A0502D501229343F3
:1037D000994669282DD064282BD04B469A0500D5F0
:1037E000AAE0DA0500D5C2E05A0600D4D3E01C9A5C
:1037F000111D1C911168FF220A404B4605930B9B3B
:103800000493039402960023019300925B462A00DE
:1038100051463800FFF717FA05002AE00826C8E7E6
:103820001026C6E71026C4E720224B4613439946CC
:10383000C1E74B469A0520D4DA0551D45A0666D51D
:103840001C9A111D1C911168FF220A40D0171118F3
:1038500041404B4605930B9B049303940296D20F71
:10386000019200915B462A0051463800FFF7EBF9C0
:103870000500119B0133119399E61C9A0732072129
:103880008A43110008311C91116853689C46DB176C
:103890000C930D930C9A0D9B100048400E900D9BBD
:1038A00061464B400F930E980F990C9A0D9B801A0E
:1038B00099410E900F914B4608930B9B07930694EA
:1038C0000496002305936346DA0F0292009001915B
:1038D0005B462A0051463800FFF713FA0500C8E797
:1038E0001C9A111D1C911268D017111841400593A4
:1038F0000B9B049303940296D20F019200915B46B6
:103900002A0051463800FFF79EF90500B1E71A0674
:1039100005D51C9A111D1C910023D25E96E71C9AB6
:10392000111D1C91126891E798900110DC90011014
:1039300028910110419000001C9A073207218A4308
:10394000110008311C9108930B9B07930694049671
:1039500000230593029353681268009201935B461B
:103960002A0051463800FFF7CCF9050081E71C9A80
:10397000111D1C9105930B9B049303940296002345
:103980000193136800935B462A0051463800FFF705
:103990005AF905006DE71A0606D51C9A111D1C91EF
:1039A00012681204120C28E71C9A111D1C9112684F
:1039B00023E746281AD01C9B0733072293431A009B
:1039C00008321C924A4604920B9A039202941A6897
:1039D0005B68009201935B462A0051463800FFF76E
:1039E00029FC0500119B01331193E0E520234A4691
:1039F0001A439146DFE7672801D0472804D1802386
:103A00001B014A461A439146452801D0472803D155
:103A100020234A461A4391461C9B073307229343AF
:103A20001A0008321C924A4604920B9A039202949E
:103A30001A685B68009201935B462A005146380081
:103A4000FFF7E6F90500119B01331193AFE502235F
:103A50004E461E404A4613421ED001241C9B1A1D8E
:103A60001C926A1C904618785B462A005146B8475B
:103A7000002E14D1119B01331193454697E5551C37
:103A80005B4651462020B84723002A005C1C0B9956
:103A90009942F4D81500E1E701232A00F6E74246EF
:103AA00006E0561C5B4651462020B8472C003200E9
:103AB000651C0B9BA342F4D89046DBE701330A0058
:103AC0001978002902D0511E002AF7D19B1B8022B1
:103AD000D2004946114088464946114202D0A342CD
:103AE00000D92300022249461140109149460A425A
:103AF00008D02A00250099463B004746984626E014
:103B0000220044E6A1462A005146B2460E0006E0D5
:103B1000551C5B4631002020B84723002A005C1C5E
:103B20000B999942F4D8150022004C4633005646B2
:103B30009A4691462A0025003B004746984606E0F3
:103B40001D000136541C5B465146C04722003078A8
:103B5000002804D0002FF4D06B1E002DF0D11500EA
:103B60004B464746109A002A03D1119B013311930B
:103B70001DE50B9E2A0006E0551C5B4651462020A1
:103B8000B84723002A005C1C9E42F5D81500ECE7DC
:103B900021234A461A4313001C9A111D1C911268D6
:103BA000059308230493039408330293002301939D
:103BB00000925B462A0051463800FFF744F80500A2
:103BC000119B01331193F2E46C1C5B462A005146B1
:103BD0002520B847119B013311932500E7E46C1CA5
:103BE0005B462A005146B847119B013311932500CB
:103BF000DDE40A4FD0E45D450DD35B465A1E5B46BB
:103C000051460020B847280013B0F0BCBB46B2466E
:103C1000A946A046F0BD2A00F1E7C046552A00108B
:103C20000EB430B584B0010007AC08CC0394012277
:103C3000054D009452422800FFF7A0FC04B030BCB0
:103C400008BC03B01847C0464D2A001010B584B018
:103C50000C0002A902904C60012404480093130058
:103C60006242FFF78BFC04B010BDC046572A00101B
:103C700000BEFDE703000A4A1268002A08D0084A7D
:103C80001068C318074A9A4206D3054A1360704762
:103C9000034A05491160F2E701204042F7E7C046B8
:103CA000CC290020000004200030022000207047B2
:103CB000012040427047000010B5030008001100C9
:103CC000002B05D1044B1A685B6800F03FF910BD6A
:103CD00001204042FBE7C0460890011010B50300E8
:103CE00008001400013B012B06D80123002221000B
:103CF00000F0E2F8200010BD01204042FBE7012067
:103D000040427047012040427047012040427047C6
:103D10000300002002229A424041704710B5FFF78D
:103D2000A7FF000030B583B00D001900002A0BD0AA
:103D3000074B084C019200932B000200200000F07A
:103D40009BF90120FFF794FF034B1A00F1E7C046EF
:103D5000B0650110C0650110B06D011010B5EFF332
:103D60000583002B00D000BEFEF7ECF8034C01E009
:103D700008CC9847024B9C42FAD310BD245B01103B
:103D8000345B011010B50300080011001B68984750
:103D900010BD0000F8B507000D001600437D002B94
:103DA00002D0002400200CE003681100280098478E
:103DB0002DE03B7D10E03B68154802219847601CD0
:103DC0000134B44214DA002CF3DD2B19013B1B78CB
:103DD0000D3B5A425341DBB22A5D0A2AF0D1002B37
:103DE000EED1A042E7DA3B68211A28189847E2E7AB
:103DF000B04203DA3B68311A28189847002E06DDD6
:103E0000AD19013D2B780D3B5A4253413B75F8BD2E
:103E10008892011070B505000368002B16D00C4B7A
:103E20001C6805E0290004C92000FFF7B3FF2469DE
:103E3000002C09D02368002BF9D0064B1B68002BFF
:103E4000F0D0A342F3D1EDE700232B6070BDC04654
:103E5000C0290020C829002070B505000C000B689F
:103E6000802B05D023685A1C2260E418257170BD90
:103E70000800FFF7CFFFF5E710B5FDF71BFE074A77
:103E8000002312184B41002B03DB054811F0ECFD19
:103E900010BD01225242034BF7E7C04640420F00DB
:103EA000DC1B0020FFFFFF7F10B5024811F074FDFE
:103EB00010BDC046DC1B0020F0B5CE46474680B59D
:103EC00083B006000D0090461C00FFF7D5FF814629
:103ED0006B1C05D0002C08D0184F194B1C6807E04C
:103EE000300010F057FE0500F4E7164FF5E724699F
:103EF000002C17D02368002BF9D0134B1B68002B24
:103F000001D0A342F3D12A0031002000B847434634
:103F1000002BECD06B46D91D0A230B700122200028
:103F2000B847E4E74B46002B05D1280003B0C0BCDE
:103F3000B946B046F0BDFFF7B7FFF6E7953D001074
:103F4000C0290020853D0010C8290020F0B583B0AD
:103F500006000F0001920093164B1C6808E0A3684E
:103F6000002B04D0390030009847002820DC246959
:103F7000002C06D0104B1D68002DF0D0A542F6D1C4
:103F8000EDE700990A000D4B5B6A994209D80B498D
:103F9000896A0198814209D29A4202D002204042A5
:103FA00006E001200021FDF78DFDD5E7022040420B
:103FB00003B0F0BDC0290020C82900200040054002
:103FC0000A4A136802E01A0010321B69002B09D05C
:103FD00013688342F7D1002907D1036913600023D6
:103FE000036102E0002900D010607047C029002062
:103FF00010B5064B1C6800E02469002C04D06368EF
:10400000002BF9D09847F7E710BDC046C029002023
:1040100010B500F043F9012010BD70B5050010F097
:10402000B9FD04000123012201002800FFF744FF2D
:10403000FFF7DEFF200070BDF0B5A3B004000E0056
:10404000FFF71AFF050001AF002301930948330071
:1040500022003900FFF7FAFD04003800FFF7DAFE0E
:10406000FFF7C6FF002D02D1200023B0F0BDFFF7FF
:104070001BFFF9E7593E00100FB400B583B004A947
:1040800001C90191FFF7D8FF03B008BC04B018477D
:1040900010B582B00C00144BC3185A425341134A56
:1040A0005B009B5E8B4204D06B46DA1D14700021CE
:1040B00015E06B46DA1D0D23137000210029F3D1A2
:1040C00083699B06FCD41378036001310132F5E764
:1040D00083699B06FCD41378036001310132002907
:1040E000F6D002B010BDC0460080FCBFB02E00204C
:1040F00082B000226B46D91D06E08369DB06FCD442
:1041000003680B7001320131002AF6D06B46D87972
:1041100002B0704770B506000D00002405E0315D67
:10412000034B1868FFF7B4FF0134AC42F7DB70BDF6
:10413000B42E0020F8B506000D00002705E07C1C19
:10414000F719FFF7D5FF38702700AF4204DA0D4AA0
:1041500010688269D206F2D50B4A1268002A0AD08A
:10416000084A126850219163506B18390140074B7F
:104170009C4662441160002F01D03800F8BD033F17
:10418000FBE7C046B42E00208C2000203410000035
:1041900010B5064B1B68002B06D0054A126800219B
:1041A0009163044A1068984710BDC0468C200020D7
:1041B000B42E002090200020024B1A6893691B0740
:1041C000FCD47047B42E002070B51D4B1B681D4AEF
:1041D000934207D0142400281ED01B4B1B68002BD1
:1041E00002D070BD1524F6E7174B1860174B196005
:1041F00017492000FCF7BAFC01212000FCF79CFCC9
:104200000F4B1B6850229A63596B183A0A401149A8
:104210008C4663441A60E4E70B4A1268002AE0D037
:1042200000259D6300212000FCF786FC0849200042
:10423000FCF7D2FD044B1D60044B1D60D1E7C04666
:10424000B42E0020008003408C200020902000200D
:10425000914100103410000070B50D001C000D4B92
:104260001860002A0BDA002C0EDA0A4B18682900B5
:10427000FDF7C8FC08480121FFF7A2FE70BD02212E
:104280001000FCF703FAEEE702212000FCF7FEF92C
:10429000EBE7C046B42E00202016002010B5074BD7
:1042A0001B78074B1B78074B1B78E1210123002269
:1042B00049020548FFF7D0FF10BDC0460425051090
:1042C00000250510FC24051000400340014B186038
:1042D0007047C046581F002010B50A00024B01006D
:1042E000180002F061FA10BDD4200020014B1868BC
:1042F0007047C046581F002010B582B0684603F0D2
:10430000C5F90448694603F0C7F9002800D0014800
:1043100002B010BDE81B002010B5FFF7E7FF040056
:1043200002F07EFE054B9C4200D010BD23685B6B03
:10433000200098470020FFF7C9FFF6E7E81B0020A0
:1043400010B5FFF7D3FF041E06D0200002F04CFE8C
:10435000002808D0002010BDFFF7CEFF041E07D0B4
:10436000FFF7B4FFF1E7FFF7D7FF01204042F2E784
:1043700001204042EFE7000010B5024800F00CF8C1
:1043800010BDC046A02C002010B502490822FEF73F
:1043900057FB10BDA02C002070B588B0040004AD00
:1043A0000D2200212800FEF745FB0D220021684662
:1043B000FEF740FB4B232B700D226946280011F0BD
:1043C000E3FA002304E05A1D69468A5CE254013393
:1043D000072BF8DD08B070BD10B5040010220021D5
:1043E000FEF728FB80235B022360F8235B026360F7
:1043F0008023DB02A360C0231B03A360200010BD49
:1044000070B504000D00FFF7E7FF6A1D63680949F6
:104410000B40ED012B43120313436360E268D200AB
:10442000D208802189050A43E260034A1340636091
:10443000200070BD7F00FEFFFFFFFF9F002805D01A
:10444000D0231B06802292045A617047D0231B069A
:10445000802292049A61F8E710B50C2906D8036807
:10446000054A1340C9020B43036010BD034B044AC5
:104470000448CD21FFF756FCFF87FFFFC0670110FE
:104480000C930110E067011000B583B00100002318
:10449000019310330193134B019301A8FFF7DCFF45
:1044A000019B0C22190091430A0008210A43019242
:1044B0000D4A1A400A4301920C4A1A400A430192DB
:1044C0000B4A1A401143019109210A430192094AFA
:1044D0001A400A430192084818400843019003B06B
:1044E00000BDC04610801F0033F8FFFF33F8BFFF48
:1044F00033F89FFF33F81FFF31F81FFF10B53F2936
:1045000006D80368054A1340C9030B43036010BD76
:10451000034B044A0448BF21FFF704FCFF7FE0FF80
:1045200040680110F4920110E067011010B50F4BC4
:10453000C45821680E4B9C466144090D0631C9B22E
:104540001820FCF7A3F82168094B9C466144090D2B
:104550000631C9B21D20FCF799F8012200211D2067
:10456000FCF7AEF80020FFF769FF10BD4C08000013
:104570000000E0AF10B504000520FDF7F5FB000CCE
:1045800060430349FDF7EEFD0338FDD210BDC04680
:104590009A3B000010B50120FFF750FF6420FFF7A1
:1045A000E9FF10BD70B50500154BC458002C14D0A0
:1045B0002168002906D06368A268124802F032FB25
:1045C000002323600C202056002807DA0D202056F7
:1045D00000280CDA0A4B0022EA5070BD02F04CFBB6
:1045E0000C20205602F02CFBFF232373EEE702F091
:1045F00043FB0D20205602F023FBFF236373E9E702
:104600004C0800004C930110F0B5D6464F46464684
:10461000C0B588B006006A4BC358002B00D0BDE07F
:104620006849674BC15000230B60FF334B730B731A
:104630000B1D0A00083264480124029405340194D9
:104640001234009402F072FA002800D1ACE004ACFD
:104650005C4D69682000FFF7D3FE80218902049138
:104660005A48026830239343594A13600368012073
:10467000824698431060079B1F2218009043020057
:10468000182002430792534A1A40534802430792A4
:10469000524A1A401043C022120302430792504A62
:1046A0001A4050480243C027BF003A4307924E4A7F
:1046B0001A4010434D4A02430792F822D201134098
:1046C0004B4A1A4380239B0513430793059A494B92
:1046D0001A4090460592484B9C4607930698474BD4
:1046E00003408022520213430693454B1840024375
:1046F0000A4306922B68434989464B44802149046A
:1047000019602868A968049C4B005B18DB00C3187B
:10471000C827B94699444F463C601C00D0342260FB
:104720001A00CC3244461460DC3362461A605346A9
:1047300000931D2202F0A0F92968334B9C46614486
:10474000090D0631C9B21820FBF7A0FF0122002194
:104750001820FBF7B5FF01211820FBF7CDFF2B68D0
:10476000A9684A005218D2009B18D833274A1A6009
:10477000002002F06FFA2873002002F06BFA40B2BA
:1047800068730C23EB56002B14DB002812DB00208F
:1047900008B0E0BCBA46B146A846F0BD1C4B1D4A65
:1047A0001D486E21FFF7BEFA3000FFF7FBFE062022
:1047B0004042EDE73000FFF7F5FE06204042E7E714
:1047C0004C080000742000204C93011078C0014078
:1047D00078D00140E0FF0FFC18001000E07F00FCE3
:1047E000007C00FC18001C00007C00E000030004BA
:1047F00018031C04FFFFFF9F18771C24FFFF0AFE0D
:10480000FFFF00C0382000000000E0AF01E0000022
:10481000546801103C93011064680110F0B5DE4645
:1048200057464E464546E0B587B00F0015001E00BE
:10483000002900D13EE1B54BC458FFF777FE002EAA
:1048400000D17FE1002F00D13AE1AB0700D044E175
:10485000B846BF0700D046E1B30700D049E1109B3E
:104860009B0700D04BE12268A1681368012738003C
:104870008840834313602168A3689C466368039360
:104880005A1D9246624650008218D2008A18CC32D5
:1048900013689F4A13401A00039BDB0113435246DF
:1048A000120313436044C0000918CC310B60226826
:1048B000A1684B005B18DB00D033D3188022520173
:1048C00094466344802212061A601A6080225204C1
:1048D0000023A16820680092019302F0C7F82368C2
:1048E000A2680432390091400A00802189018C4677
:1048F00063441A602368A268083239009140634417
:1049000019602168A368EA00013A04339B005A50F9
:104910002368A1684A005218D2009B18D8337D4AF8
:104920001A602168A368109A521BD200013A04331E
:104930009B005A502368A1684A005218D2009B1865
:10494000D833754A1A602368A06862681F21114035
:1049500042001218D2009B18D83319600C22A256BC
:104960003B009340A020C0056C4943509301A02117
:10497000C9058C466344DB68DB01F7D40D22A256DF
:10498000012393400800654943509301A021C905C4
:104990008C466344DB68DB01F7D40C202056FFF71C
:1049A00073FD04908027FF03384304902368A168B7
:1049B0005B4A944663441B0DDB00C91804A8FFF74B
:1049C0009DFD0C23E3562168A268043292008918E9
:1049D000AA089B01A020C005844663444046186095
:1049E000596090469A60049ADA600D202056FFF7CD
:1049F0004BFD0590384305902368A168484A9446CA
:104A000063441B0DDB000433C91805A8FFF776FDCE
:104A1000059B202219001143059110218B4313435C
:104A200005930D23E35672192068A16808318900A7
:104A300041181098870840463F1A9B01A020C005E6
:104A40008446634419605A609F60059ADA60226860
:104A5000A0681168012383400B4313600C22A25607
:104A60009101A023DB059C4661440B69DB01F7D46F
:104A70000D22A2569101A023DB059C4661440B69DF
:104A8000DB01F7D42A0000213000FDF7D3FF2368B3
:104A9000A1684A005218D2009B18D833214A1A60E4
:104AA000FFF778FD002007B0F0BCBB46B246A94630
:104AB000A046F0BD002B00D0BDE605204042F2E745
:104AC000002D04D0109B9D4201D23700BDE6164B4D
:104AD000164A1748EF21FFF725F9164B134A1448D9
:104AE000F521FFF71FF9144B104A1148F621FFF783
:104AF00019F9124B0D4A0E48F721FFF713F9104B25
:104B00000A4A0B48F821FFF70DF9C0464C0800008F
:104B10007F00FEFF206000004060000044040000B1
:104B20000000E0AF03A00000C4680110289301104A
:104B300064680110E8680110FC6801101469011034
:104B40002C690110002FA2D0BA46BF0700D0D2E0D6
:104B5000AB0700D0D6E02268A168136801273800AF
:104B600088408343136023689B46A0686668731C73
:104B70009C4641000B18DB005B44CC331B68984615
:104B8000644B42461A401300F6013343664636032F
:104B900033430918C9000A005A44CC321360226812
:104BA000A1684B005B18DB00D033D3188022520180
:104BB00094466344802212061A601A6080225204CE
:104BC0000023A16820680092019301F04FFF236841
:104BD000A2680432390091400A00802189018C4684
:104BE00063441A602368A268083239009140634424
:104BF00019602168A368EA00013A04339B005A5007
:104C00002368A1684A005218D2009B18D833424A40
:104C10001A602268A36804339B000021995023681E
:104C2000A1684A005218D2009B18D8333B4A1A6038
:104C30002368A06862681F21114042001218D20048
:104C40009B18D83319600C22A2569740A021C905A1
:104C5000334BCF509301A021C9058C466344DB68D8
:104C6000DB01F7D40C202056FFF70EFC05908023C3
:104C7000DB03034305932368A1682A4A94466344EF
:104C80001B0DDB00C91805A8FFF738FC0C23E35601
:104C90002168A268043292008A18AD089B01A02105
:104CA000C9058C466344514619605A609D60059A57
:104CB000DA60A26818320123190091400A002168C5
:104CC0008A602068A5680168AB400B4303602368D5
:104CD0009B681A42FBD02168A0680B6801228240C1
:104CE00093430B60A16820680023009301331822CE
:104CF00001F0C2FECBE60C4B0C4A91210C48490056
:104D0000FFF710F80B4B094A24210948FF31FFF740
:104D100009F8C0467F00FEFF2060000040600000F0
:104D2000440400000000E0AFFC680110289301106B
:104D300064680110E868011030B589B001291CD001
:104D4000002409078025ED052943D2020D4D2A4094
:104D50000A431343029323000833009302AB042257
:104D60000021FFF75BFD002805D1002C07D00523AB
:104D70009B0002AA985809B030BD1024E1E7012336
:104D8000F6E7C04600F8FF0F30B585B00D07C02428
:104D900024062C43D2020E4D2A402243089C224373
:104DA00002920393012907D000230093082202A94D
:104DB000FFF734FD05B030BD0649082444500839DA
:104DC0004250054A83508268044BC250ECE7C0460B
:104DD00000F8FF0F58080000540800005C080000AD
:104DE00010B51720FBF73CFDD024240680231B04BC
:104DF0006362002201211720FBF762FC1820FBF7F9
:104E00002FFD80235B046362A3611920FBF728FD5B
:104E100080239B046362636110BD70B5D0242406B7
:104E200080252D04A5611420FCF744FD6561FA205E
:104E3000FCF740FD1820FBF713FD80235B04A36201
:104E400070BD000070B584B005000E00140008228B
:104E5000002102A8FDF7EEFD012E18D036078023B1
:104E6000DB053343E2020D490A4013430422134396
:104E70005BBA02930823009302AB00212800FFF7DE
:104E8000CDFC002801D1039840BA04B070BD044B9A
:104E9000044A88210448FF31FEF744FF00F8FF0F61
:104EA00040690110E09201106468011010B50423FC
:104EB000FFF742FF10BD10B50223FFF73DFF10BD05
:104EC00010B50123FFF738FF10BD000010B584B006
:104ED0000C07C02109062143D202084C22400A4394
:104EE00004210A4352BA02A902925BBA4B60002322
:104EF00000930822FFF792FC04B010BD00F8FF0FEA
:104F000010B582B004240094FFF73EFF02B010BD3C
:104F100010B582B002240094FFF736FF02B010BD36
:104F200010B582B001240094FFF72EFF02B010BD2F
:104F3000F0B5CE46474680B583B00C0091461D00C3
:104F4000012943D00027EB1C03218B435E1EFF2168
:104F5000C9008E4245D2060028360A998E4205D0F5
:104F600004D82A4A81180A9A914241D8002F46D083
:104F700000212407A0468024E405A4464446624656
:104F80001443A4464A46D202214C2240644622439E
:104F90002A430431890041180C1D4A60FF18043768
:104FA0000097230004220021FFF738FC071E28D1B8
:104FB0000A9B9E4204D02A0031001800FDF740FDF4
:104FC000380003B0C0BCB946B046F0BD402B01D894
:104FD0001027B8E70F4B104AEC211048FF31FEF7BD
:104FE000A1FE0F4B0C4AF7210C484900FEF79AFE30
:104FF0000C4B094AF0210948FF31FEF793FE0421CA
:10500000B7E709483900FFF737F8D9E72808000063
:1050100000F8FF0F5C690110CC9201106468011068
:105020009C690110C4690110286A0110F0B5D646C8
:10503000474680B583B005000F0090469A46012987
:1050400033D05346DE1C03239E43721EFF23DB0036
:105050009A4232D2022F37D0280028300A9B984239
:1050600047D00A9B984204D82F4BEB180A9A9342D8
:1050700054D83F07C0231B063B434246D2022B496C
:105080000A401343524613436B620A99FDF7D8FC5A
:1050900029002431321D002300932800FFF7BEFBB6
:1050A00003B0C0BCBA46B046F0BD402BC9D9204BB6
:1050B000204A21482149FEF735FE214B1D4A822115
:1050C0001D488900FEF72EFEFA24A4002300013CAF
:1050D000002B06DD082200212800FFF7E7FE8006EE
:1050E000F4D5002CB8DC1748FEF797FF06204042A5
:1050F000D6E73F07C0231B063B434246D2020B497B
:105100000A40134352461A436A6229002431321D71
:10511000002300932800FFF781FBC1E70A4B054AF3
:1051200005480A49FEF7FEFD2808000000F8FF0FB9
:105130005C690110B8920110646801100602000059
:105140009C690110586F0110446A0110220200008E
:10515000012805D0022801D0002070470148FCE753
:105160000148FAE70040101800301018F8B50700A1
:105170000C0016001D000B884988C9430904090C5E
:105180008B422FD10B2B33D9817B227A914235D19F
:10519000237ABB7362790F231340022B06D8627AFD
:1051A0007B7BD31ADBB2142B00D87A7320880C28AF
:1051B00028D062790F231340012B4DD0022B34D01D
:1051C000002B74D11B2823D9E379E3189A68110CBA
:1051D0003F8A8F4222D110331C1B041B34602B608A
:1051E000002069E03848FEF718FF0220404263E0E3
:1051F0003648FEF712FF032040425DE03448FEF7D8
:105200003BFFC5E73348FEF708FF0420404253E068
:105210003148FEF702FF052040424DE02F483A009A
:10522000FEF72AFF0620404246E010280ED9E37917
:10523000E3189A78D978890004315B181C1B001B8D
:10524000D407044334602B60022035E02448FEF785
:10525000E4FE072040422FE010281CD9E379E31830
:10526000DA78920004329B181C1B001B1A7B882AD8
:1052700023D15A7B6C2A23D1DA7C002A11D11A7DE2
:10528000102A0ED15A7D182A0BD1183830601833E5
:105290002B60012010E01348FEF7BFFE08204042BB
:1052A0000AE01148FEF7B9FE0A20404204E00F4828
:1052B000FEF7B3FE0B204042F8BD09204042FBE759
:1052C00009204042F8E7C046906A0110A86A011020
:1052D000C46A0110EC6A01100C6B0110306B0110F4
:1052E000586B0110786B0110986B0110A86B0110BE
:1052F000F8B5CE46474680B50700B023C35AB4225E
:1053000086589919026C914207D804003C34E4187D
:10531000A61900239946984606E001235B42836064
:105320002DE0A04602356419B44212D22278657885
:10533000AB1CE318B342F5D8302AF2D0DD2AF1D104
:10534000A01C1149D93A0FF051FA0028EAD1A14620
:10535000E8E74346002B00D004234A46002A01D048
:10536000022213434C22BA5AD20601D5012213431A
:105370008421785AFF2202407A528822BB54C0BC52
:10538000B946B046F8BDC04688060510F8B58E1E71
:10539000033080080A00330006E0148855882D0485
:1053A0002C4310C3043201380028F6D1881E0B8824
:1053B0005BBA0B8043681A0E190AFF273F02394077
:1053C0000A431902FF252D0429400A431B061A43EC
:1053D00042608368190E1C0A3C4021431C022C4089
:1053E00021431B0619438160C468230E9C46230A8F
:1053F0003B4067463B4327023D402B432406234363
:10540000C360452A01D03000F8BD0829FBD1300027
:10541000FFF76EFFF7E70000F8B5CE46474680B5C8
:1054200005008946002916D1002426001E4F2300BE
:105430003A0001212800FFF773FD23003A00012103
:105440002800FFF76DFD4B46002B06D0032398463E
:10545000032700240FE00124E7E7012398460027F3
:10546000F7E7012001F07AFE33000F4A01212800FE
:10547000FFF756FD01343F2C0DDC0B4A01212800BB
:10548000FFF71EFD0028ECDB43460340BB42E8D19A
:10549000FF28E6D003E005484946FEF7EDFDC0BC15
:1054A000B946B046F8BDC0461F000100B86B0110F8
:1054B00010B501235940C9B2FFF7AEFF10BD00007F
:1054C00010B5012906D1012B0BD0042B0CD1FFF70D
:1054D000EDFC10BD084B094A9F2109484900FEF721
:1054E00021FCFFF7EDFCF4E7064B044AA121044838
:1054F0004900FEF717FCC046DC6B0110B8930110A1
:10550000F86B0110446C011010B5012907D1012B73
:105510000CD0042B0ED1029BFFF7F2FC10BD094BFF
:10552000094AA42109484900FEF7FCFB029BFFF74A
:10553000F7FCF3E7064B044AA62104484900FEF7AE
:10554000F1FBC046DC6B0110A8930110F86B011051
:10555000446C011030B583B00500CC0BE4038368C4
:10556000A34211D063408022520493420ED2AB6812
:105570006340FF221204134210D1AB686340FF2244
:105580001202134213D1AC6003B030BD230E00935E
:1055900001230B4A0121FFF7B7FFE8E7230C009333
:1055A0000123084A01212800FFF7AEFFE5E7230A9F
:1055B00000930123044A01212800FFF7A5FFE2E739
:1055C0000C0001000B0001000A00010070B505008D
:1055D0000C001600FFF7BEFF6404640C8022120268
:1055E0002243330001212800FFF76AFF0400C02195
:1055F00049052800FFF7AEFF200070BD70B504001C
:105600000800FFF7A5FD80231B01C5180122290012
:105610002000FFF7DBFF012229002000FFF7D6FF63
:10562000C00701D5002070BD0248FEF7F6FC062039
:105630004042F8E7506C011070B505000800FFF714
:1056400087FD04008123DB00C11801222800FFF739
:10565000BDFF03230340012B09D180231B01E11867
:1056600001222800FFF7B2FFC00704D470BD044830
:10567000FEF7D3FCF1E70248FEF7CFFCF6E7C046A1
:105680006C6C0110F0B5DE4657464E464546E0B517
:1056900083B08046894617009A46D31C0322934361
:1056A000BB4201D1002422E01D4B1E4ACF211E48DF
:1056B0004900FEF737FB3B1B9B464B46E1184D0468
:1056C0006D0C5B46EA1880231B029A4218D84046AC
:1056D000FFF740FF5444802212022A4300945B46A5
:1056E00001214046FFF7A2FC002811D13400BC4242
:1056F0000DD226004036BE42DDD840239B46DCE773
:105700000A4B084AD82108484900FEF70BFB002045
:1057100003B0F0BCBB46B246A946A046F0BDC046A9
:10572000806C011090930110F86B0110A46C0110B3
:10573000F0B583B005000C0016001F00FFF70AFF4C
:105740006404640C8022120222430097330001217A
:105750002800FFF7D9FEC02149052800FFF7FAFE0F
:1057600003B0F0BDF8B504000D001600FFF746FFCA
:105770002800FFF7EDFC05008123DB00C718002E91
:1057800026D02323012239002000FFF7D1FF012278
:1057900039002000FFF71AFF80231B01E9180023BE
:1057A00001222000FFF7C4FF012001F0D7FC002EEA
:1057B00010D02123012239002000FFF7B9FF012278
:1057C00039002000FFF702FF012001F0C7FCF8BDFF
:1057D0000323D7E70123EDE7F0B5C64600B58918E6
:1057E000164BCF18164BFA5C164BFB5C1B021A4388
:1057F0009046FA235B009A4216D2134BFB5C002BB7
:1058000012D15026B0450FDD0F4CA41B3C190F4997
:10581000092220000FF0D2F8051E01D00136F1E771
:105820002000FEF7FAFB04E00948FEF7F6FB062528
:105830006D42280080BCB846F0BDC046E0FCFFFFCA
:105840000E0300000F0300000D030000EC6C0110BC
:10585000F86C01100160002383600373012242731E
:105860008373038200228274C274014A835070479A
:105870004C08000010B5FEF795FE10BD10B50400F1
:10588000002909D0837C002B00D110BD0023837434
:105890000121FFF70DFEF8E700F0AAFEA37C002B24
:1058A000F3D100212000FFF703FE0123A374ECE7EE
:1058B000F0B585B0070003911600C37C002B05D11D
:1058C000006800F08FFE002800D189E00021380038
:1058D000FFF7D4FFFB7C002B0ED000240020FA231E
:1058E0009B009C422CDA082200213800FFF7DEFAE8
:1058F000431C25D10134F2E7042200213800FFF7D0
:10590000DAFA040085B2394B1B88AB4202D08623F9
:10591000034208D1002D0CD1344B1D80A406DCD4E9
:105920000120404238E00104090C3148FEF7A4FB95
:10593000F0E72B00042200213800FFF7E9FAEBE73B
:10594000431C50D0C30538D5430A5B055B0D591E77
:10595000C022D200914221D280071FD43C002834BB
:105960000094002202213800FFF7E2FA002813D148
:10597000398D002902D17B8D002B23D00123FB74AC
:105980007A8D080050401B4B984223D13300039A74
:1059900021003800FFF7EAFB05B0F0BD16481900FA
:1059A000FEF76AFB0123154A01213800FFF7B8FA18
:1059B0000023FB7401204042EEE70023FB7401202A
:1059C0004042E9E70E48FEF728FB0023FB74012064
:1059D0004042E1E70B48FEF74FFB01204042DBE786
:1059E00001204042D8E701204042D5E7F62F0220AF
:1059F000206D0110FFFF00004C6D01100D00010033
:105A00006C6D0110886D011010B582B0040014E0B7
:105A100000980199FFF7BAFC0100200000F0EEFDAC
:105A20000BE0009AD10F019B52005208206801F050
:105A3000BEFB02E00948FEF71FFB01AA69462000F1
:105A4000FFF736FF0100030009330B2BF2D89B0050
:105A5000034AD3589F4602B010BDC046B46D011032
:105A600060930110F0B5D6464F464646C0B584B0A7
:105A700005008A4691469846002901D002296ED138
:105A800000212800FFF7FAFEAB7B002B31D16A7BA7
:105A90002B7B9A422DD04B460C339BB2424613804F
:105AA000DB4353802B7B1371434652465A710023CC
:105AB000424693715346022B4FD00C234246D3717A
:105AC0000023137253729372D3722B7B01332B73A7
:105AD0004B460F3303229343424600920022022199
